:020000040800F2
:10000000480500200101000833100008530F0008C4
:10001000311000087D010008911300080000000065
:10002000000000000000000000000000591000085F
:100030007F01000800000000351000085B10000878
:100040001B0100081B0100081B0100081B01000820
:100050001B0100081B0100081B0100081B01000810
:100060001B0100081B0100081B0100081B01000800
:100070001B0100081B0100081B0100081B010008F0
:100080001B0100081B0100081B0100081B010008E0
:100090001B0100081B0100081B0100081B010008D0
:1000A000ED1000081111000805110008F9100008F2
:1000B0001B0100081D110008000000001B010008C2
:1000C0001B01000800000000000000001B010008E8
:1000D000000000001B0100081B01000800000000D8
:1000E0001B0100081B0100081B010008DFF80CD0F1
:1000F00000F032F800480047E913000848050020E6
:100100000648804706480047FEE7FEE7FEE7FEE7B1
:10011000FEE7FEE7FEE7FEE7FEE7FEE7A5100008C4
:10012000ED000008D2B201E000F8012B491EFBD21D
:1001300070470022F6E710B513460A4604461946F2
:10014000FFF7F0FF204610BD421C10F8011B0029EC
:10015000FBD1801A70470000064C074D06E0E068AE
:1001600040F0010394E8070098471034AC42F6D3FE
:10017000FFF7C0FFC8140008E8140008FEE7704746
:100180002DE9F84FDFF89C91002409F1040A0AF1E7
:10019000040B23460F270BF1040EBBE00125A540FD
:1001A0002A40AA4276D1DFF880C14E68A6EB0C083F
:1001B00066452BD00DDC032E34D005DC36B3012E82
:1001C00019D0022E2FD11BE0112E16D0122E2AD1BB
:1001D00019E0B8F5881F19D006DCB8F5803F15D0B6
:1001E000B8F5801F1FD111E0B8F5001F0ED0B8F58B
:1001F000041F18D10AE0CB6815E0CB681B1D12E084
:10020000CB6808330FE0CB680C330CE08B682BB164
:10021000012B4FF0080303D0456104E0042302E002
:10022000056100E00023FF2A01D8064601E000F145
:1002300004064FEA840501D9A5F12005D6F800800F
:1002400007FA05FC28EA0C0803FA05F548EA050850
:10025000C6F800804D68ED005BD5344DAE6946F0C0
:100260000106AE61AD6924F0030605F001050095B5
:100270002F4D06EB050CDCF80850A607360F07FAE1
:1002800006F825EA0805DFF8AC80404503D14FF0B9
:10029000000810E03DE0DFF8A080404502D14FF0BB
:1002A000010808E0DFF89480404502D14FF00208D1
:1002B00001E04FF0030808FA06F848EA0508CCF810
:1002C00008804D68D9F80060ED034D4601D516430E
:1002D00000E096432E604D68DAF80060AD035546A5
:1002E00001D5164300E096432E604D68DBF80060B0
:1002F000ED025D4601D5164300E096432E604D6841
:10030000DEF80060AD02754601D5164300E0964365
:100310002E60641C0A6832FA04F57FF43FAFBDE832
:10032000F88F00000004014000001110001002408E
:100330000000014000080140000C01400010014095
:100340008068084000D0012070470AB10161704701
:100350000904FBE7014880687047000000000020A6
:1003600002488168027811448160704700000020D3
:10037000074810B5016841F010010160032000F04A
:1003800075F8002000F006F800F024F8002010BDF9
:100390000020024070B50D4D04464FF47A71287864
:1003A000B1FBF0F00A490968B1FBF0F000F0ECFA9B
:1003B00048B9102C07D200222146501E00F036F812
:1003C00000206C6070BD012070BD000000000020A6
:1003D0000C0000200C4808B5816941F001018161E1
:1003E000816901F001010091C16941F08051C16151
:1003F000C06900F0805000900448416821F0E0613D
:1004000041F08061416008BD0010024000000140E1
:10041000002809DB00F01F02012191404009800003
:1004200000F1E020C0F8001170470000F0B40E4B5E
:100430001B680C46C3F30223C3F10705042D00D942
:100440000425191D072901D2002300E0DB1E012627
:1004500006FA05F1491E214099409E40761E16403D
:100460003143F0BC00F095BF0CED00E0064900F010
:10047000070208684FF6FF03184040EA0220034ACB
:1004800010430860704700000CED00E00000FA0522
:100490002DE9F0470F46050061D0434E306800F06B
:1004A0000700B84209D2306820F0070038433060B6
:1004B000306800F00700B84251D128683B4C8107F2
:1004C00012D5400703D5606840F4E060606028788A
:1004D000000703D5606840F4605060606068A968F8
:1004E00020F0F000084360602878C00728D06868D2
:1004F000012810D02168022810D0890700292EDA9F
:10050000616821F0030101436160FFF723FF80462A
:1005100041F288390DE021688903EFE78901EDE7B1
:10052000FFF718FFA0EB0801494502D90320BDE8F9
:10053000F0876068696800F00C00B0EB810FEFD1C4
:10054000306800F00700B8420BD9306820F007008F
:1005500038433060306800F00700B84201D0012015
:10056000E5E72878400705D56068E96820F4E06091
:10057000084360602878000706D56068296920F480
:10058000605040EAC100606000F038F86168084AD5
:10059000C1F30311515CC840064908600648006871
:1005A000FFF7F8FE0020C2E70020024000100240E2
:1005B000B01400080C000020040000200448054985
:1005C00000684968044AC1F30221515CC840704781
:1005D0000C00002000100240C01400080448054927
:1005E00000684968044AC1F3C221515CC8407047A1
:1005F0000C00002000100240C014000812A185B0B9
:100600000FC98DE80F0014A0144A006804905168C7
:10061000134801F00C03042B10D0082B0ED1C1F3AA
:100620008343C9031DF803000AD5516804AAC1F326
:100630004041515C0A4A5043B0FBF1F005B07047AD
:1006400008494843FAE700000203040506070809C1
:100650000A0B0C0D0E0F10100102000000100240DA
:1006600000127A0000093D002DE9F84F040070D017
:100670002078C04DC00749D06868C0F381000128C8
:1006800007D06868C0F38100022809D16868C003F8
:1006900006D52868800339D560680028E7D035E0A2
:1006A0006068B0F5803F0BD010B1B0F5A02F11D02D
:1006B000286820F480302860286820F4802002E038
:1006C000286840F480302860606890B1FFF742FEEF
:1006D00006460AE0286840F480202860F0E700BF62
:1006E000FFF738FE801B642873D828688003F7D58D
:1006F0000CE0FFF72FFE064605E000BFFFF72AFEDD
:10070000801B6428F0D828688003F7D420789A4E9C
:1007100080074FF001094FF0000839D5686810F0E4
:100720000C0F07D06868C0F38100022809D16868FF
:10073000C00306D42868800714D52069012808D191
:1007400010E02069B0B1C6F80090FFF703FE07463D
:1007500005E00AE1FFF7FEFDC01B0228C4D82868A7
:100760008007F7D52868616920F0F80040EAC100E9
:1007700028600DE0C6F80080FFF7ECFD074604E0B6
:10078000FFF7E8FDC01B022823D828688007F7D4AC
:10079000207800072CD57948A169D9B1C0F800901C
:1007A000FFF7D8FD074604E0FFF7D4FDC01B022881
:1007B0000FD8686A8007F7D571484FF4FA5100687E
:1007C000B0FBF1F0009000BF0098411E0091FAD2FA
:1007D0000EE080E0C0F80080FFF7BCFD074604E0B3
:1007E000FFF7B8FDC01B022875D8686A8007F7D4E8
:1007F0002078400760D5E8690027C00008D4E86980
:1008000040F08050E861E869012700F080500090D6
:100810005C480168C90513D40168834641F48071BE
:100820000160FFF797FD824606E000BFFFF792FDEB
:10083000A0EB0A0064284ED8DBF80000C005F5D50F
:10084000E06801280AD008B1052813D0286A20F0F2
:1008500001002862286A20F0040002E0286A40F0C3
:1008600001002862E06841F2883B98B1FFF772FD11
:1008700082460BE0286A40F004002862EEE700BFE1
:10088000FFF768FDA0EB0A0159455AD8286A80078E
:10089000F6D50CE0FFF75EFD824605E0FFF75AFD56
:1008A000A0EB0A0159454CD8286A8007F6D41FB13D
:1008B000E86920F08050E861E06988B36968C1F3B5
:1008C0008101022944D00228C6F8608004D0FFF7D5
:1008D00041FD044638E034E0FFF73CFD074604E004
:1008E000FFF738FDC01B02282BD828688001F7D4F9
:1008F000206AB0F5803F05D16868A16820F4003017
:1009000008436860D4E908010843696821F4741158
:1009100008436860C6F86090FFF71CFD044606E0D7
:1009200025E000BFFFF716FD001B022809D8286844
:100930008001F7D51BE000BFFFF70CFD001B02286C
:1009400002D90320BDE8F88F28688001F4D40EE0B6
:100950000128F7D06868226A00F48031914204D1FE
:10096000616A00F47010884201D00120EAE700209B
:10097000E8E70000001002400000424280044242CA
:100980000C0000200070004010B5401EB0F1807FC8
:1009900001D3012010BD4FF0E02460610F216017EA
:1009A00000F0F7FC0020A06107202061002010BDAE
:1009B0007047704770B590F83C20012A19D0012487
:1009C00000F83C4F0222427050F83C3C5A689D6847
:1009D00022F070060A684968324325F080052943F1
:1009E0005A6050F83C2C9160447000210170084618
:1009F00070BD022070BD10B5040003D094F83D0016
:100A000010B107E0012010BD002084F83C00204612
:100A100000F00CF8022084F83D00211D206800F051
:100A200083FB012084F83D00002010BD08B5214A59
:100A300001682148914226D1816941F400618161B8
:100A40008069002200F40060009011461820FFF732
:100A5000EDFC1820FFF7DCFC002211461920FFF7FF
:100A6000E5FC1920FFF7D4FC002211461A20FFF7FD
:100A7000DDFC1A20FFF7CCFC002211461B20FFF7FB
:100A8000D5FC1B2010E00D4A914211D1C16941F003
:100A90000201C161C069002200F00200009011460D
:100AA0001D20FFF7C3FC1D20BDE80840FFF7B0BCC8
:100AB00008BD0000002C014000100240000400406E
:100AC0000168CA6842F00102CA600068816801F0EA
:100AD0000701062903D0016841F0010101600020EF
:100AE000704770B5044690F83C00012817D00125E6
:100AF00084F83C50022084F83D002068826822F08F
:100B0000770222F47F4282600868502830D00DDCE2
:100B100020284DD005DC98B310283BD148E00220B6
:100B200070BD302844D0402834D139E0602828D026
:100B3000702806D0B0F5805F2CD0B0F5005F29D1C9
:100B40000AE0CB68D1E90121206800F01BFB206896
:100B5000816841F0770109E0CB68D1E90121206883
:100B600000F010FB2068816841F48041816011E051
:100B7000CA684968206800F05AFB5021206807E0E5
:100B800016E0CA684968206800F062FB60212068AE
:100B900000F002FB84F83D50002084F83C0070BD5A
:100BA000CA684968206800F042FB40212068EFE7EE
:100BB000226801461046EBE7704770B504460068AE
:100BC00001694FF00005C943890715D4C168C943BD
:100BD000890711D4E91E016101202077206880690E
:100BE0008007204602D0FFF7E7FF04E000F098F806
:100BF000204600F096F8257720680169C943490727
:100C000017D4C168C943490713D46FF004010161C7
:100C1000022020772068806910F4407F204602D0AF
:100C2000FFF7CAFF04E000F07BF8204600F079F8F7
:100C3000257720680169C943090716D4C168C943EB
:100C4000090712D46FF008010161042020772068A1
:100C5000C0698007204602D0FFF7AEFF04E000F035
:100C60005FF8204600F05DF8257720680169C943E8
:100C7000C90617D4C168C943C90613D46FF010015F
:100C80000161082020772068C06910F4407F204669
:100C900002D0FFF791FF04E000F042F8204600F098
:100CA00040F8257720680169C943C90708D1C168A0
:100CB000C943C90704D1891E0161204600F032F8FA
:100CC00020680169C943090609D4C168C9430906F6
:100CD00005D46FF0800101612046FFF769FE2068AE
:100CE0000169C943490609D4C168C943490605D405
:100CF0006FF040010161204600F063F8206801694F
:100D0000C94389060BD4C168C943890607D46FF06B
:100D1000200101612046BDE87040FFF74ABE70BD6A
:100D20007047704710B50D4900680968884210D1B6
:100D30000BA000F081F90B4C02212046FFF700FBCD
:100D4000012801D0012200E0002202212046FFF705
:100D5000FCFABDE8104004A000F06EB9B400002019
:100D600034000000000801403500000070B5044662
:100D700090F83C00012812D0012584F83C50022054
:100D800084F83D00204600F00FFA01004FF000000B
:100D900007D084F83D5084F83C00012070BD02204B
:100DA00070BD2168CA6822F04002CA602168CA6822
:100DB00022F48042CA6084F83D5084F83C00002050
:100DC00070BD704770B5040004D094F83900002558
:100DD00010B106E0012070BD84F83850204600F0C4
:100DE00023F8242084F839002068C16821F40051D8
:100DF000C160204600F03EFA2068016921F490416C
:100E000001612068416921F02A0141612068C168BF
:100E100041F40051C160E563202084F8390084F872
:100E20003A00002070BD000030B585B00024009469
:100E300001940294039400681449884224D1144810
:100E4000816941F480418161816901F480410491AB
:100E5000816941F00401816180690E4D00F0040058
:100E600004904FF400700090022001900320039042
:100E700069462846FFF784F92815CDE9000469463C
:100E800028460294FFF77CF905B030BD00380140D8
:100E900000100240000801402DE9F843044690F894
:100EA00039001F4616460D46202850D1A5B19EB1E7
:100EB00094F8380001284AD0012084F838004FF017
:100EC0000008C4F83C80212084F83900FFF742FA7A
:100ED000A6848146E68426E00120BDE8F883E08C04
:100EE000401EE084A0684B46B0F5805F4FF00002E2
:100EF0004FF080012046009703D000F017FAE8B9C0
:100F00000DE000F013FAC8B928882168C0F3080082
:100F10004860206908B16D1C05E0AD1C03E0216844
:100F200015F8010B4860E08C0028D8D14B46002210
:100F300040212046009700F0F9F908B10320CCE7E2
:100F4000202084F8390084F838800020C5E702208A
:100F5000C3E7FEE710B58CB000240594069407940F
:100F6000142168460894FFF7E4F8154809941349DA
:100F70000A94016040F21F31C0E901146421C0E904
:100F800003148021C0E90541FFF735FD4FF480507F
:100F9000059005A90A48FFF7A4FD0620CDE9000445
:100FA00069460748FFF7E2FE1020CDE9090409A9C8
:100FB0000348FFF7FFFC0CB010BD0000002C0140FF
:100FC0007400002010B58CB000240594069407949A
:100FD000142168460894FFF7ACF8144809941249A4
:100FE0000A9401600721C0E901144FF47A71C0E945
:100FF000031480218161FFF7FEFC4FF480500590BF
:1010000005A90A48FFF76DFD062000901020019009
:1010100069460648FFF7AAFE099409A903480A94FD
:10102000FFF7C8FC0CB010BD00040040B400002065
:10103000FEE770477047000010B50446FFF784F8DC
:10104000214682B2BDE810404FF47A730148FFF7A1
:1010500023BF0000F40000207047FFF781B930B5CE
:101060008FB028216846FFF764F814210AA8FFF71B
:1010700060F80120022504900095102005900024BE
:10108000CDE9075468460994FFF7EEFA0F200A905D
:10109000CDE90B540D9400210AA80E94FFF7F8F93E
:1010A0000FB030BD0D48016841F001010160416899
:1010B0000B4A1140416001680A4A11400160016811
:1010C00021F480210160416821F4FE0141604FF468
:1010D0001F0181600449C00308607047001002408E
:1010E0000000FFF8FFFFF6FE08ED00E00148FFF703
:1010F00064BD0000740000200148FFF75EBD0000E1
:10110000740000200148FFF758BD00007400002063
:101110000148FFF752BD0000740000200148FFF7AE
:101120004CBD0000B400002070B50268134B144C95
:101130004FF08046984203D0B04201D0A04203D184
:1011400022F070054A682A43984203D0B04201D089
:10115000A04203D122F44074CA6822434C6922F0B1
:101160008002224302608A68C2620A6882629842F0
:1011700001D1096901630121416170BD002C014069
:101180000004004010B5846842EA032224F47F443E
:101190000A432243826010BD826822F070020A4333
:1011A00042F007018160704710B503689A6822F029
:1011B00070044A68224322F007040A6822439A60B6
:1011C0004A6812F00F0F30D11211082A2DD2DFE831
:1011D00002F02C2C2C2C0B2127040B69D1E90221C5
:1011E0000068FFF7CFFF20E00A68052A10D00268E8
:1011F000136A146A24F0010414620268946909698C
:1012000024F0F00444EA01119161006803620CE0EB
:10121000012010BD0A698968006800F008F804E040
:101220000A698968006800F013F8002010BD10B545
:10123000036A046A24F001040462846924F0F0045F
:1012400044EA021423F00A020A438461026210BDD8
:1012500010B5036A23F0100303628369046A23F460
:10126000704343EA023224F0A00343EA0111826191
:10127000016210BD2DE9F041044600680169E26891
:1012800021F44051114301612169A068084361695B
:1012900008432168CA6841F20C639A430243CA605A
:1012A00020684169A26921F44071114341611E49DE
:1012B000206864253226884202D1FFF78FF901E0C9
:1012C000FFF77CF900EBC00101EB001160686FF0E3
:1012D00018078000B1FBF0F2B2FBF5F2B1FBF0F3BE
:1012E0007A4303EB8202B1FBF0F306EB0212B2FB8E
:1012F000F5F2B3FBF5F302F0F00202EB0312B1FBDF
:10130000F0F3B1FBF0F0B0FBF5F0784303EB8000B5
:1013100006EB0010B0FBF5F0216800F00F00104460
:101320008860BDE8F0810000003801402DE9F041FF
:10133000984617460E460446069D1DE0681C1BD0C5
:101340002DB1FFF707F8A0EB0800A84214D92068D8
:10135000C16821F4D071C1602068416921F00101A8
:101360004161202084F8390084F83A00002084F894
:1013700038000320BDE8F0812068006836EA0000EC
:1013800004D00020B842D9D00020F3E70120F9E7CB
:10139000FEE70907090E002804DB00F1E02080F8D1
:1013A0000014704700F00F0000F1E02080F8141DD9
:1013B000704702E008C8121F08C1002AFAD170471E
:1013C0007047002001E001C1121F002AFBD17047C5
:1013D00000214FF47A7304E00222521C9A42FCDB93
:1013E000491C8142F8DB704786B0FEF7C1FFFFF76A
:1013F00036FE0024294D0094019402940394A869B8
:1014000040F00400A861A869254E00F00400049093
:10141000224606213046FEF798FF06200090012064
:10142000CDE901040320039069463046FEF7A8FE8B
:101430001D491C4808604FF41650C1E901040C20F6
:10144000CC60C1E904408C610846CC61FFF7BAFC6E
:10145000FFF780FDFFF7B6FDE86940F00200E861A4
:10146000E86900F0020000900F484038FFF728FBC1
:101470004FF47A7404213046FEF762FF012801D050
:10148000012200E0002204213046FEF75EFF07A0A3
:10149000FFF7D2FD2046FFF79BFFEBE7001002406D
:1014A0000008014000380140F400002031323300D0
:1014B0000000000000000000010203040607080904
:1014C0000000000001020304E814000800000020EE
:1014D00010000000B2130008F814000810000020EB
:1014E00038050000C21300080100000010000000D1
:0814F000000000000024F400DC
:04000005080000ED02
:00000001FF
